:1000000000308A00F22900000A108A100A118207C3
:1000100028340C34013406340A108A100A1182077D
:100020000C34733465346C34653463342E342034CA
:1000300075346D34613420346F347034E734E33414
:100040006F340A3431344334613464342E345334DD
:100050002034323449346E3473342E345334003403
:100060000A108A100A1182070C3444346934673448
:100070002E342034533465346E34683461340A3499
:1000800000340A108A100A1182070A342A34003414
:100090000A108A100A1182072A3400340A108A10C2
:1000A0000A1182070C344534523452344F3421340F
:1000B0000A34733465346E346834613420346A34FD
:1000C000E134203463346134643400340A108A101B
:1000D0000A1182070C34733465346E346834613429
:1000E000203463346134643461347334743472346E
:1000F00061346434613400340A108A100A118207B2
:100100000C344C3449344234453452344134443450
:100110004F3421342134213400340A108A100A115A
:1001200082070C34533465346E34683461342034BF
:100130006E34E3346F3420346334613464342134F6
:1001400000340A108A100A1182070C344F347034BC
:10015000203469346E34763461346C3469346434F8
:10016000613400343130840000080319C52801309F
:10017000A100A001A00BBA28A10BB9284A30A00009
:10018000A00BC028C328800BB7280034380EF039E4
:10019000A0000F3008052004880000000814D028B3
:1001A000081000348810F030831688008312081578
:1001B0000000081400000808080E0F39B8000810E5
:1001C0000000081400000808080E0F39B7000810D6
:1001D0000030831688008312380EA000F030A0058E
:1001E00020083704A1002108B700B71BD328351C0D
:1001F0008810351888140000081100000810360E09
:10020000B7000F30B7053708B800C62036080F39D9
:10021000B700B800C620003400308316880083126F
:100220008810081108100F30B100B2200130AF0063
:100230002F08033C031C24290330B800C6200530D6
:10024000B100B220AF0A18290230B800C620AF01B1
:100250002F08033C031C35292F080420B000B501EA
:100260003008B600D220AF0A28298A11022A3008A5
:100270000C3A03194229063A03194A29023A03198A
:1002800060296529B5010130B600D2200230B100E5
:10029000B2206B290130B1000230B200320B51297B
:1002A00054294030B3005529B30101303102B3075E
:1002B00033088038B400B5013408B600D2206B2969
:1002C000B5011030B600D2206B290130B5003008DE
:1002D000B600D2206B2900340D30AF002F080D3C42
:1002E000031DCA29831606108312061483160514EB
:1002F0008312051C7D290130AF00831685148312FB
:10030000851C84290230AF00831605158312051D54
:100310008B290330AF008316061083120610831654
:10032000861083128614831605148312051C9A29DD
:100330000430AF00831685148312851CA129053073
:10034000AF00831605158312051DA8290630AF00DE
:1003500083168610831286108316061183120615E3
:10036000831605148312051CB7290730AF008316C6
:1003700085148312851CBE290830AF00831605152D
:100380008312051DC5290930AF008316061183129B
:1003900006116E292F08A1000034A001A101300828
:1003A00003103118A007A00CA10CB118A007A00CD5
:1003B000A10C3119A007A00CA10CB119A007A00C29
:1003C000A10C311AA007A00CA10CB11AA007A00C17
:1003D000A10C311BA007A00CA10CB11BA007A00C05
:1003E000A10C003484011F30830583161F149F1451
:1003F0001F159F1107309C00FF308312A5000130AC
:10040000A6000C29AF012F080C20003803190C2A74
:10041000AF0AB0003721032A0430AF00FA30B10030
:10042000B220AF0B0E2A6C212108A7000230AF00CA
:10043000FA30B100B220AF0B182A2708013A03198D
:10044000252A033A0319E82A992BAF012F083020F7
:10045000003803192F2AAF0AB0003721262A0230AC
:10046000AF009630B100B220AF0B312A6C212108C9
:10047000A800AF012F08412000380319432AAF0A12
:10048000B00037213A2A0230AF009630B100B220D6
:10049000AF0B452A6C212108A900AF012F08482085
:1004A00000380319572AAF0AB00037214E2A02300C
:1004B000AF009630B100B220AF0B592A6C21210851
:1004C000AA00AF012F084820003803196B2AAF0A91
:1004D000B0003721622A0430AF00FA30B100B220F8
:1004E000AF0B6D2A2808B0006430B100CD2121087F
:1004F000AF002908B0000A30B100CD2121082F0734
:100500002A07AB00AC01013003178D0083168C1352
:100510000C1483120C080313AE01AD002D082B023E
:10052000031DB02A2E082C02031DB02AAF012F088C
:100530004E2000380319A02AAF0AB0003721972AAD
:1005400083160910831209140430AF00FA30B10089
:10055000B220AF0BA62A8316091083120910E72ACE
:10056000013003178D0003132B0803178C0083162B
:100570008C130C15831203130B08A0008B13831626
:10058000031755308D00AA308D008C148C18C62AA4
:100590000C118312031320088B04A60A8316091179
:1005A00083120915AF012F08662000380319DC2AD1
:1005B000AF0AB0003721D32A0430AF00FA30B100BF
:1005C000B220AF0BDE2A8316091183120911B32B57
:1005D000AF012F08302000380319F22AAF0AB0000B
:1005E0003721E92A0230AF009630B100B220AF0BBC
:1005F000F42A6C212108A800AF012F0841200038FF
:100600000319062BAF0AB0003721FD2A0230AF00D4
:100610009630B100B220AF0B082B6C212108A90045
:10062000AF012F084820003803191A2BAF0AB00079
:100630003721112B0230AF009630B100B220AF0B42
:100640001C2B6C212108AA00AF012F08482000387C
:1006500003192E2BAF0AB0003721252B0430AF0031
:10066000FA30B100B220AF0B302B2808B000643054
:10067000B100CD212108AF002908B0000A30B10037
:10068000CD2121082F072A07AB00AC010130031749
:100690008D0083168C130C1483120C080313AE0107
:1006A000AD002D082B02031D7F2B2E082C02031DED
:1006B0007F2BAF012F087C2000380319632BAF0A72
:1006C000B00037215A2B8316091183120915251002
:1006D000250883168700831207142030AF00FA30F4
:1006E000B100B220AF0B6F2B8316091183120911D1
:1006F000251025088316870083120710982BAF0159
:100700002F088D2000380319892BAF0AB00037213C
:10071000802B83160910831209140830AF00FA30B9
:10072000B100B220AF0B8F2B831609108312091072
:10073000B32BAF012F08A12000380319A32BAF0A58
:10074000B00037219A2B8316091083120914083040
:10075000AF00FA30B100B220AF0BA92B83160910FD
:0A07600083120910B32B012A630075
:02400E00713F00
:00000001FF
;PIC16F874A
