:1000000000308A00672B00000A108A100A1182074C
:1000100028340C34013406340A108A100A1182077D
:100020000C3444346534663469346E3461342034BD
:100030006134203468346F34723461343A340A34B1
:1000400048343D3400340A108A100A1182070C34F7
:10005000763461346C346F347234203469346E34E5
:10006000763461346C34693464346F3421340A3446
:10007000743465346E347434653420346E346F34C3
:10008000763400340A108A100A1182070C34443482
:100090006534663469346E34613420346F3420340E
:1000A0006D3469346E343A340A344D343D3400349E
:1000B0000A108A100A1182070C34443465346634FD
:1000C00069346E34613420346F34203473346534D1
:1000D00067343A340A3453343D3400340A108A10F9
:1000E0000A1182070C34483420342D3420344D3426
:1000F00020342D34203453340A34253475342034DC
:100100002D3420342534753420342D3420342534D6
:10011000753400342E308400000803199D28013006
:10012000A100A001A00B9228A10B91284A30A000A9
:10013000A00B98289B28800B8F280034350EF039AF
:10014000A0000F3008052004880000000814A8282B
:10015000081000348810F0308316880083120815C8
:100160000000081400000808080E0F39B500081038
:100170000000081400000808080E0F39B400081029
:100180000030831688008312350EA000F030A005E1
:1001900020083404A1002108B400B41BAB28321C91
:1001A0008810321888140000081100000810330E5F
:1001B000B4000F30B4053408B5009E2033080F3961
:1001C000B400B5009E2000340030831688008312EE
:1001D0008810081108100F30AE008A200130AA00E4
:1001E0002A08033C031CFC280330B5009E20053080
:1001F000AE008A20AA0AF0280230B5009E20AA018B
:100200002A08033C031C0D292A080420AB00B20174
:100210002B08B300AA20AA0A00298A11732B2D08E3
:100220000C3A03191A29063A03192229023A03192A
:1002300038293D29B2010130B300AA200230AE00B6
:100240008A2043290130AE000230AF002F0B29294C
:100250002C294030B0002D29B00101302E02B0070A
:1002600030088038B100B2013108B300AA20432918
:10027000B2011030B300AA2043290130B2002D088A
:10028000B300AA20432900340D30AA002A080D3CEF
:10029000031DAB298316061083120614831605145A
:1002A0008312051C55290130AA0083168514831278
:1002B000851C5C290230AA00831605158312051DD2
:1002C00063290330AA0083160610831206108316D2
:1002D000861083128614831605148312051C722956
:1002E0000430AA00831685148312851C79290530F1
:1002F000AA00831605158312051D80290630AA0061
:100300008316861083128610831606118312061533
:10031000831605148312051C8F290730AA00831643
:1003200085148312851C96290830AA0083160515AA
:100330008312051D9D290930AA0083160611831218
:10034000061183168611831286158316851483126F
:100350008518AA0146292A08A10000342E08A10107
:100360002D020318B6292D08A000C229A0010830CB
:10037000AF00AD0DA00D2E0820020318A000A10DA6
:10038000AF0BB929003421082B08AD006430AE0052
:10039000AE212008AB0021083030031DD629AC1C4B
:1003A000DD29AC19DD292C1A2030D929AC112C12E9
:1003B0002C14A1072108AD000F212B08AD000A3035
:1003C000AE00AE212008AB0021083030031DEE291D
:1003D000AC19F2292C1CF2292C1A2030A107210873
:1003E000AD000F213030AB072B08AD000F210034DA
:1003F000A001A1012A0803102B18A007A00CA10C32
:10040000AB18A007A00CA10C2B19A007A00CA10CE5
:10041000AB19A007A00CA10C2B1AA007A00CA10CD3
:10042000AB1AA007A00CA10C2B1BA007A00CA10CC1
:10043000AB1BA007A00CA10C0034AA012A080C20B9
:1004400000380319272AAA0AAD000F211E2A4421C9
:100450002108A8000230AA009630AE008A20AA0B1C
:100460002C2A0A30AD000F214830AD000F213D305D
:10047000AD000F212808AB001B30AC00C321442184
:100480002108A9000230AA009630AE008A20AA0BEB
:10049000442A0A30AD000F214830AD000F213D3015
:1004A000AD000F212808AB001B30AC00C321290888
:1004B000AB001B30AC00C3212808AA000A30AB00F7
:1004C000F82121082907A5002508173C03187B2AD5
:1004D000AA012A08232000380319722AAA0AAD00AB
:1004E0000F21692A0430AA00FA30AE008A20AA0B34
:1004F000742A1D2A892A0A30AD000F214830AD0028
:100500000F213D30AD000F212508AB001B30AC00A2
:10051000C3218A11742BAA012A084220003803192A
:10052000952AAA0AAD000F218C2A44212108A8008F
:100530000230AA009630AE008A20AA0B9A2A0A300E
:10054000AD000F214D30AD000F213D30AD000F212A
:100550002808AB001B30AC00C32144212108A900AE
:100560000230AA009630AE008A20AA0BB22A0A30C6
:10057000AD000F214D30AD000F213D30AD000F21FA
:100580002808AB001B30AC00C3212908AB001B308E
:10059000AC00C3212808AA000A30AB00F8212108CA
:1005A0002907A60026083B3C0318E92AAA012A08C5
:1005B000232000380319E02AAA0AAD000F21D72A08
:1005C0000430AA00FA30AE008A20AA0BE22A8B2A55
:1005D000F72A0A30AD000F214D30AD000F213D301C
:1005E000AD000F212608AB001B30AC00C3218A11DF
:1005F000752BAA012A08582000380319032BAA0AD0
:10060000AD000F21FA2A44212108A8000230AA00D7
:100610009630AE008A20AA0B082B0A30AD000F21BD
:100620005330AD000F213D30AD000F212808AB0045
:100630001B30AC00C32144212108A9000230AA00CC
:100640009630AE008A20AA0B202B0A30AD000F2175
:100650005330AD000F213D30AD000F212808AB0015
:100660001B30AC00C3212908AB001B30AC00C321F8
:100670002808AA000A30AB00F82121082907A700A2
:1006800027083B3C0318572BAA012A0823200038CF
:1006900003194E2BAA0AAD000F21452B0430AA00E6
:1006A000FA30AE008A20AA0B502BF92A652B0A30AB
:1006B000AD000F215330AD000F213D30AD000F21B3
:1006C0002708AB001B30AC00C3218A11762B8401B4
:1006D0001F30830583161F149F141F159F110730A9
:1006E0009C008312E4281D2A8B2AF92AAA012A08D1
:1006F0006E20AA0AA000AD000F210B302A02031DB4
:10070000772B2508AB001B30AC00C3212030AD0097
:100710000F212D30AD000F212030AD000F21260814
:10072000AB001B30AC00C3212030AD000F212D30B9
:10073000AD000F212030AD000F212708AB001B308A
:10074000AC00C3210430AA00FA30AE008A20AA0B04
:10075000A42BA70A27083B3C0318B02BA701A60A25
:1007600026083B3C0318B62BA601A50A2508173C12
:0A0770000318BB2BA501762B6300D4
:02400E00713F00
:00000001FF
;PIC16F874A
